:02000002B0004C
:1040000000400B002C920B00000006000C00050283
:084010000401E50C00000000B2
:0440180084800B0095
:10401C0009480A49884208B505D0094A824202D0AB
:10402C00121A03F047FF0748074A0021121A03F03F
:10403C0069FF014808BD00BF78E5032098910B008B
:10404C00E4E50320E4E50320EDE7032070B5074E1B
:10405C00074C03F0D9FCA41BA4080025AC4200D1EA
:10406C0070BD56F8043B98470135F7E74C910B00AF
:10407C0070910B0000F066B808B500F0DFF8BDE8F1
:10408C00084003F079BC01F0A9BD01F0A7BD01F017
:10409C00ADBD000008B5034A03490C2001F0FAFC41
:1040AC00FEE700BFB1570B0098800B000078B0FA08
:1040BC0080F04009704701230370704708B505482C
:1040CC0000F00AFF034800230361BDE8084001210A
:1040DC0000F049BD2CE60320F8B5184F184E0446E5
:1040EC004518AC4228D003F0C1FB036821789B68CB
:1040FC00984714F8013B312B12D1FFF7DFFF3946FB
:10410C00304603F044F9304601F054F94FF4FA60AC
:10411C0001F09CFDFFF7D2FF304601F04BF9E0E7D0
:10412C00302BDED1FF210022084603F099F902F072
:10413C0087F802F059FCD4E7F8BD00BFAD800B0046
:10414C002CE6032070B5374C90B0204601F066FA8F
:10415C00FFF7B4FF4FF001136361204601F02AF919
:10416C003149204603F013F9204601F023F94FF4AE
:10417C00FA6001F06BFDFFF7A1FF204601F01AF980
:10418C0002F05EF802F0A6F802F05AF8274A284C22
:10419C0001460BA802F0EAFD0BA802F048F902F068
:1041AC004FF8244A01460BA802F0E0FD0BA802F0E0
:1041BC003EF903A802F071FA0FCC06AD0FC506AD9F
:1041CC000FCD26680BAC0FC40BA8266001F0ACFE1B
:1041DC0004460BA8ECB901F0C3FE0094ADF80A003C
:1041EC0002230DF10A02032103A802F04BFA124933
:1041FC0003A802F065FA02F023F8002203A902F0EA
:10420C00BAF8012003F01CF9039801F0EFFC10B090
:10421C0070BD01F0A7FE0023009302461023072176
:10422C00E2E700BF2CE60320C6800B00A4E60320C7
:10423C00F0E503209CE60320D8800B0008B50B4862
:10424C0001F015FA01F0FCFF02F054F8024650B1EF
:10425C00FF220021084603F003F9BDE808404FF4A3
:10426C007A7001F0F3BCFF21F4E700BF2CE60320C9
:10427C002DE9F0473F4B404A9A60002498B0C3E9BF
:10428C000044032001F016FC3C4D3D4F3D4E2146B1
:10429C00012001F01FFC07213B4801F091F93B493B
:1042AC00284601F0DFFE3A49384601F0DBFE394979
:1042BC00304601F0D7FE0FCE0DF1100CA846ACE83D
:1042CC000F00B8E80F00D6F800A0CCF800A009AE9B
:1042DC000FC60DF1100CBCE80F00D8F80090C6F812
:1042EC0000900EAE0FC6DFF8BCE0C6F800A00DF1D2
:1042FC00240CCEE90044BCE80F0013AE0FC6C6F880
:10430C00009013AE0EAB7046CDE9014422490096E5
:10431C004FF0100202F000FC0FCF0DF1100CACE8C6
:10432C000F000FCDD7F800E0D8F80080CCF800E0F3
:10433C0009AF0FC7C7F8008004AF0FCF0EAD0FC584
:10434C00DFF864C0C5F800E009AFCCE900440FCF3A
:10435C0035460FC5114BC5F8008011490294CDE9C3
:10436C0000634FF004020EAB604602F0D5FB18B0B0
:10437C00BDE8F087E4E503200000FFFFF0E5032033
:10438C0004E6032018E603202CE60320E1800B0052
:10439C0006810B002B810B0050810B00E5400B00BC
:1043AC0053810B00A4E603209CE603202DE9F04F7B
:1043BC0085B01F46BDF93880BDF83C30A8EB02092A
:1043CC00A7EB010AB9F1000FB8BFC9F10009BAF1A6
:1043DC00000FB8BFCAF1000AD14583460C461546FA
:1043EC0004DD3A462C4647460D469046BC4205DD58
:1043FC002A464546904622463C4617463E1BB2B2DC
:10440C000092A8EB050282EAE271A1EBE271C6F31D
:10441C00C03202FA86F64545B4BF01224FF0FF3296
:10442C00019176100292BC421CDCDBF80020039355
:10443C00D145D2F81880C7BF294622462A462146C4
:10444C005846C047019A039BB61AB1B236B2002E39
:10445C0005DA029A1544009A56182DB236B2013478
:10446C0024B2E0E705B0BDE8F08F704710B40468E3
:10447C002469A4465DF8044B604730B40468BDF869
:10448C0008500295A46BA44630BC604730B4046855
:10449C00BDF808500295E46BA44630BC604770B47C
:1044AC00BDF90C50BDF810600468CDE90356246CBE
:1044BC00A44670BC60472DE9F3411C460368BDF867
:1044CC0020805B6905461646013C34440F4624B2F5
:1044DC0098472B68CDF8048000949C6A28463B468C
:1044EC0032463946A0472B68DB6A284602B0BDE845
:1044FC00F04118472DE9F3411D460368BDF82080B3
:10450C005B69044617460E469847CDE90078226849
:10451C006B1E3344956A20461BB23A463146A84777
:10452C002368DB6A204602B0BDE8F04118472DE94C
:10453C00F3471E460368BDF928905B69BDF82C80D3
:10454C000C460546174698472644B4422B680BDAAE
:10455C00CDF80080D3F820A021464B463A46284699
:10456C000134D04724B2F0E7DB6A284602B0BDE83C
:10457C00F047184713B502680191B0F90E1000917D
:10458C00146CB0F90C3000221146A04702B010BDDB
:10459C002DE9F74399421646BDF92870BDF82C90C9
:1045AC00026880460D461C4613D1BE42C8BF334636
:1045BC00CDF82890C4BF3E461F467B1C946B9B1BBA
:1045CC001BB2324629464046A44603B0BDE8F04330
:1045DC006047BE420AD19942C2BF0B4625461C46D3
:1045EC00631CCDF82890D46B5B1BE9E753699847A3
:1045FC00CDE90079D8F8003040469F6A3246234610
:10460C002946B847D8F80030DB6A404603B0BDE80D
:10461C00F04318472DE9F3471D460368BDF82C807D
:10462C005B69BDF9289004460F46164698472368E7
:10463C00CDF80080D3F824A032462B4639462046CC
:10464C00D0472368CDF8008009F1FF323244D3F80B
:10465C0024A039462B46204612B2D0472368CDF809
:10466C000080D3F820A032464B4639462046D0472E
:10467C006B1ED9192368CDF800801D6A20464B4665
:10468C00324609B2A8472368DB6A204602B0BDE86F
:10469C00F0471847704701F00303B0F90A208376FE
:1046AC00C907B0F9083059BF8381C2818281C381A7
:1046BC007047000030B54281C281074A074D018125
:1046CC00002481814FF0FF31C0E905124460056080
:1046DC0004610477046230BD0101000160860B00A7
:1046EC002DE9F04F89B0CDE902120268BDF948807E
:1046FC000493BDF94C3052690593BDF850A00446A3
:10470C00904718F107024FF0000648BF08F10E025F
:10471C004FEAE20B01963546039B019ABDF9041052
:10472C009A18059B8B4212B227DD049B33444FF041
:10473C00000906930FFA89F080451FFA89F117DDFD
:10474C004F0705BF069BC0106D001D5C18BFEDB276
:10475C002B060AD5029B206807921944836909B27B
:10476C001F4620465346B847079A09F10109E1E76D
:10477C00019B013301935E44CEE72368DB6A20463C
:10478C0009B0BDE8F04F18472DE9F04F2DED028B25
:10479C0091B01646026ABDF874809DF878509DF869
:1047AC007C4003911F46BDF8703004938346002A69
:1047BC0040F0C580B0F90C308B4240F34C81B0F91D
:1047CC000E30B34240F34781062313FB0513002B35
:1047DC0040F3418106EBC403002B40F33C81037F83
:1047EC001BB9AF2F84BF0137FFB2DBF8003058463E
:1047FC005B6998470522099200220592984A07EBBB
:10480C008703D3180C93B3B20693059A0C9B9B5C4D
:10481C000793ABB20B93BDF80C300893039B02FBD0
:10482C0005F919FA83F90FFA89F308EE103A0823FF
:10483C000A93039B02EB030A4FF000090FFA8AFA62
:10484C00079ADBF80030D20752D5012D1FFA89F2F6
:10485C003ED1012C3CD19B6906991F46049B0A440E
:10486C0012B251465846B84709F101034FFA83F981
:10487C00079B5B0807930A9B013B13F0FF030A930A
:10488C00DED1059F01377BB20593099B013B13F0E9
:10489C00FF030993B9D1049B43450FD0012DDBF8DD
:1048AC0000303BD1012C39D10899CDF8008005316D
:1048BC001C6A3246082309B25846A047DBF8003080
:1048CC00DB6A584611B0BDEC028BBDE8F04F1847BF
:1048DC00069914FB02F20A44049901910094DB69D5
:1048EC0018EE101A1F4612B22B465846B847BBE7B3
:1048FC00049A4245B8D0012D1FFA89F207D1012C38
:10490C0005D19B6906991F460A444346A8E70699B8
:10491C00CDF8048014FB02F20A44DFE70B9ACDF8C1
:10492C00048002EB8201089AE4000A4411460094C8
:10493C00DC6932462B4609B25846A047BEE7137ACB
:10494C00516812680B92FF1AFFB201EBC70331F8E2
:10495C00372006929A780992DA780C92012D93F905
:10496C00052093F906A00A9201D8012C57D9BDF95C
:10497C00283008930FFA8AF30793DBF80030584677
:10498C005B699847B3B24FF000080E931AFA86F39E
:10499C00C14647460F930C9B9F428FD2079B0E9AA2
:1049AC003B4403FB0423002205920F9A1BB202EB3B
:1049BC00070A08EE103A0FFA8AFA4346099A059943
:1049CC00914241D25A1CD2B25B070D9207D1069B81
:1049DC0006990B9A01339BB212F80190069319F0C9
:1049EC00800F12D0012DDBF80030BDF80C101AD15D
:1049FC00012C18D10A9A9B691144059A11441E4640
:104A0C005246049B09B25846B047059E0136F3B294
:104A1C004FEA490905935FFA89F90D9BCEE700230C
:104A2C00CDE90733A9E70598089A024402FB051162
:104A3C00049ACDE90042DB6918EE102A1E4609B231
:104A4C002B465846B047E0E7099B013798445FFA7C
:104A5C0088F8FFB29FE711B0BDEC028BBDE8F08F78
:104A6C0056810B00F0B5026A85B004460B46002A4D
:104A7C0034D10A2908D1438A0282427E03EBC20355
:104A8C006382012005B0F0BD0D29FAD0E17E007ED5
:104A9C00657E71B1B4F91060062111FB0061B4F9A7
:104AAC000C60B142C1BFB4F91210228201EBC502F5
:104ABC006282E28A0192A28A0092CDE90205B4F9DF
:104ACC001220B4F910102046FFF75EFE237E228AD6
:104ADC0003EB430302EB43032382D2E70A2907D1FA
:104AEC0000230382417E927A438A01FB0233C7E79B
:104AFC000D29C6D0157AA942C3D3517A9942C0D395
:104B0C0051685D1BEDB201EBC505A87828B3E978B7
:104B1C0019B3E17E267E677E91B195F905100844A4
:104B2C00B4F9101006FB0011B4F90C00814207DD3A
:104B3C0000202082B4F91210927A02FB07126282D2
:104B4C00E28A0192A28A0092CDE90267B4F912209E
:104B5C00B4F910102046FFF717FE2979227E238A1C
:104B6C0001FB0233B8E7012938BF012101764176F8
:104B7C007047704710B510210446FFF788FA20469D
:104B8C0010BD0EB403B503AB002153F8042B0193F5
:104B9C0002F025FC02B05DF804EB03B07047000096
:104BAC0073B5044608462279A36832B1A3B90B4900
:104BBC0002B0BDE8704002F0D7BB094A267B094D14
:104BCC000949647B012E18BF2946CDE90014074919
:104BDC00FFF7D7FF02B070BD054AEFE7C1860B00A7
:104BEC00B8860B00BD860B00B9860B00D7860B0070
:104BFC00B0860B0010B5044B03600446C06A08B1C4
:104C0C0000F0F4FF204610BDB08B0B0010B504462D
:104C1C00FFF7F0FF20465021FFF739FA204610BD70
:104C2C00002910B54BDBB0F90C408C4247DD002A53
:104C3C0045DBB0F90E40944241DD847E022C1FD03E
:104C4C00032C26D0012C04D10489D24314440A46E7
:104C5C0021B2012B23D0022B32D083BB002A134666
:104C6C000489C06AB8BFD31DDB1013FB041102F01A
:104C7C00070201239340425C22EA030242541EE0E5
:104C8C000489013C611A4489D243224409B212B20C
:104C9C00DFE74489013C641A114622B2D9E7002AA5
:104CAC0004891346B8BFD31DDB1013FB0411C36A70
:104CBC0002F0070001228240585C02435A5410BD96
:104CCC00002A13460489C06AB8BFD31DDB1013FB3E
:104CDC00041102F00702012303FA02F2435C5A406A
:104CEC00CCE7000070B504461D460026FFF7E2FC39
:104CFC00114B2360666215B902F04AFF0546FF238B
:104D0C0084F8333084F836309DF9103084F837301D
:104D1C000A4BA363012384F83C30059BA3644FF634
:104D2C00FF72069BA286C4E90A562664A4F8446066
:104D3C00E364204670BD00BFB08B0B00FC860B00FB
:104D4C00F8B50446806A0D4690B194F9301002F023
:104D5C00A7F9A06A036800219B689847A06A0368BA
:104D6C0029469B689847A06ABDE8F84002F09FB9B5
:104D7C0094F93530014698B202F0C7FE606A20B152
:104D8C002946BDE8F84002F031BC0826802794F98A
:104D9C00330005EA070180B202F0B7FE94F9340043
:104DAC00012180B202F0B1FE94F93400002180B2EE
:104DBC0002F0ABFE013E4FEA5707E8D1F8BD38B51B
:104DCC000446806A0D4680B1A16C02F05BF9002D9F
:104DDC00204614BFA721A621FFF7B2FFA06A88B115
:104DEC00E16CBDE8384002F04DB9606A18B104F1CD
:104DFC00380102F08DFB94F93600002180B202F0EC
:104E0C0084FEE4E794F93600012180B202F07DFEC5
:104E1C00606A18B1BDE8384002F060BB38BD2DE9BE
:104E2C00F8430446806A0D468F1840B394F930104D
:104E3C0002F036F9A06A036800219B6898470126A6
:104E4C00AF42A06A17D01F2E0CD902F030F994F99A
:104E5C003010A06A02F024F9A06A036800219B6854
:104E6C0098470126A06A15F8011B036801369B6858
:104E7C009847F6B2E4E7BDE8F84302F018B994F9A4
:104E8C003530014698B202F040FEBD4222D0606A35
:104E9C0015F8019B18B1494602F0A8FBF5E7082666
:104EAC004FF0800894F9330009EA080180B202F04F
:104EBC002CFE94F93400012180B202F026FE94F904
:104ECC003400002180B202F020FE013E4FEA580867
:104EDC00E8D1DAE7BDE8F883B0F90A30DA1D48BF4B
:104EEC0003F10E02B0F90830C06AD2105A43002107
:104EFC0003F008B82DE9FF411E46C36A9DF82880CF
:104F0C0004460F461546C3B12046FFF7E5FFB4F93A
:104F1C000A00B4F90810202821DC202301222038B3
:104F2C00CDE9013200EBD07073237339009301EBA0
:104F3C00D171894B40F34F0221E0B0F90A30D81DF2
:104F4C0048BF03F10E00B4F90830C010584300F00C
:104F5C0045FEE0620028D7D104B0BDE8F0814038AE
:104F6C00C0F3C03202FA80F240230120CDE90130B7
:104F7C00522352390093794B01EBD17152102046D8
:104F8C0041F34F01FFF7ACFBA06A84F831700028A5
:104F9C0078D0002D74D1B4F90A30202B0CBF3C25ED
:104FAC003D2584F83050B8F1000F01D002F06EF8B6
:104FBC00FEB194F9370000281BDB012180B202F00E
:104FCC0093FD94F93700012180B202F09EFD01207F
:104FDC0000F03CFE94F93700002180B202F095FD00
:104FEC000A2000F033FE94F93700012180B202F060
:104FFC008CFDA06A002874D0A16C02F043F8042246
:10500C0057492046FFF70BFF61890139C9B2204689
:10501C00FFF796FE534904222046FFF700FF94F950
:10502C003130012B0CBF102114212046FFF788FED4
:10503C0004224D492046FFF7F2FEA3684B4A9342E7
:10504C005CD14B4904222046FFF7E9FED9212046CA
:10505C00FFF776FE94F93130012B0CBF2221F121A0
:10506C002046FFF76DFE204642490622FFF7D7FE89
:10507C00A06A002863D0E16C02F004F801206BE711
:10508C006DB28EE794F93500012180B202F02CFD4F
:10509C0094F93600012180B202F026FD94F9360015
:1050AC00012180B202F031FD656A3DB1B8F1000F0B
:1050BC003FF47EAF284602F0FDF979E794F933000E
:1050CC00012180B202F010FD94F93400012180B26C
:1050DC0002F00AFD94F93400294680B202F015FD65
:1050EC0066E7606A18B104F1380102F011FA94F91C
:1050FC003600002180B202F008FD80E71E4A934280
:10510C000ED11E4903222046FFF789FE94F9313057
:10511C00012B0CBF9F21CF212046FFF711FE95E7F5
:10512C00174A934292D1174903222046FFF777FE84
:10513C0094F93130012B0CBF1021AF21ECE794F91D
:10514C003600012180B202F0E0FC606A002895D0A4
:10515C0002F0C4F992E700BFC8890B0008870B0066
:10516C00108C0B00148C0B00188C0B008000200092
:10517C00228C0B001C8C0B0080004000268C0B003A
:10518C0060001000298C0B0070B5002ABDF810507F
:10519C003DDBB0F90A40944239DD0029BEBF5B18F3
:1051AC001BB20021B0F90840CE18A642C4BF631A46
:1051BC001BB2002B2BDDC06AD61014FB0611014468
:1051CC0002F0070001228240012DD2B216D0022D2E
:1051DC000BD0E5B9D243D2B20B44994217D011F897
:1051EC00010B104001F8010CF7E70B4499420ED06B
:1051FC0011F8010B504001F8010CF7E70B449942F0
:10520C0005D011F8010B104301F8010CF7E770BD44
:10521C00F0B50029BDF8145076DBB0F90860B14246
:10522C0072DA002ABEBF9B181BB20022B0F90A40EA
:10523C00D718A742C4BFA31A1BB2002B64DDC2F35C
:10524C00C404C76A16FB041612F00702DBB207EBA4
:10525C00060423D0C2F10802D2B22D4993423CBFBE
:10526C004FF0FF0CA2EB030E895C3CBF4CFA0EFC1A
:10527C000CEA0101012D07D0022D2ED04DB917F8E3
:10528C0006C02CEA010103E017F806C041EA0C0144
:10529C00B955934238D3B0F908100C449A1AD2B2CB
:1052AC00072A0ED9022D1DD113462178C94321702E
:1052BC00083BB0F90810DBB2072B0C44F5D802F010
:1052CC0007020AB3134B012D9B5C1AD0022D1CD084
:1052DC00D5B9227822EA030315E017F806C081EA53
:1052EC000C01D5E7291E18BF01214942C9B213464A
:1052FC002170083BB0F90860DBB2072B3444F7D8B7
:10530C00DDE7227813432370F0BD22785340FAE78F
:10531C00008C0B00088C0B0070B41446827EBDF818
:10532C000C60022A0DD0032A18D0012A11D102894F
:10533C00E443144424B203960A46214670BCFFF79A
:10534C0067BF42890589E44319441444691A24B29D
:10535C0009B20396224670BCFFF716BF4589194463
:10536C00691A09B2E7E730B41446827EBDF80850DA
:10537C00022A0DD0032A18D0012A11D1E21804896F
:10538C00A41A24B202950A46214630BCFFF7FCBE93
:10539C000289C9431144E2184489A41A09B224B2FF
:1053AC000295224630BCFFF733BF4289C9431144F2
:1053BC0009B2E7E72DE9F8430446806A002842D099
:1053CC00A16C01F05FFE474905222046FFF727FD3F
:1053DC00218901392046C9B2FFF7B2FCB4F90A3071
:1053EC00DE1D48BF03F10E06D4E90A052389F61029
:1053FC0013FB06F615FA86F600283AD094F930100D
:10540C0001F04EFEA06A036840219B689847012773
:10541C00B542A06A24D01F2F0CD901F048FE94F994
:10542C003010A06A01F03CFEA06A036840219B6822
:10543C0098470127A06A15F8011B036801379B6880
:10544C009847FFB2E4E7606A18B104F1380102F042
:10545C005FF894F93600002180B202F056FBB2E7F7
:10546C0001F025FEA06A78B3E16CBDE8F84301F0C9
:10547C0009BE94F93500012180B202F046FBAE4220
:10548C00F0D0606A15F8019B18B1494602F0AEF8ED
:10549C00F5E708274FF0800894F9330009EA080172
:1054AC0080B202F032FB94F93400012180B202F098
:1054BC002CFB94F93400002180B202F026FB013F52
:1054CC004FEA5808E8D1DAE794F93600012180B2A6
:1054DC0002F01BFB606A18B1BDE8F84301F0FEBF97
:1054EC00BDE8F8832C8C0B0000210A22C0E90012C5
:1054FC007047002310B50446C171837188B202F065
:10550C001DFB08B10323A37100F054F9206010BDFA
:10551C0038B50C4605461146A0B202F0E5FA214614
:10552C002846BDE83840FFF7E4BF38B50446C079DB
:10553C0002F004FBA579003825F0080318BF012000
:10554C00C5F340058542A3710AD000F033F9A37965
:10555C00206083F00203A371A079C0F3C00038BDB2
:10556C0000F028F92368C01AA3889842F4D3A379D1
:10557C0003F00103AB42EFD000F01CF9A3792060DB
:10558C0083F0010343F00803E5E7000010B5064B78
:10559C0003600446006D08B100F0DCF82046FFF70C
:1055AC0029FB204610BD00BF3C8C0B0010B50446F7
:1055BC00FFF7ECFF20467021FEF769FD204610BD79
:1055CC0030B585B004460D4602F0E2FA104A114996
:1055DC00CDE901214FF0FF32802103460092204695
:1055EC002022FFF77FFB0C4B23600023C4E914350A
:1055FC0004F15800FFF778FF04F16000FFF774FF27
:10560C0004F16800FFF770FF204605B030BD00BF05
:10561C00801A0600A08601003C8C0B0013B50446D2
:10562C00503000F08FF8636DD90705D502220421A4
:10563C0004F15800FFF76CFF636D9A0705D5002243
:10564C00032104F16000FFF763FF636D5B0705D571
:10565C000222114604F16800FFF75AFF0123009360
:10566C003C2202212046FFF745FC02B010BD10B5CC
:10567C00436DD907044602D55830FFF756FF636DCA
:10568C009A0703D504F16000FFF74FFF636D5B07CA
:10569C0005D504F16800BDE81040FFF746BF10BD0A
:1056AC0008B5024B1B689B68019308BD7802030088
:1056BC0008B5024B1B681B6D019308BD78020300F3
:1056CC0008B5024B1B689B6D019308BD7802030063
:1056DC0008B5024B1B681B6E019308BD78020300D2
:1056EC0008B5034B1B68D3F89830019308BD000034
:1056FC007802030008B5034B1B68D3F8A83001935C
:10570C0008BD00007802030008B5034B1B68D3F8F2
:10571C00E830019308BD00007802030008B5034B84
:10572C001B68D3F8EC30019308BD0000780203002D
:10573C0008B5034B1B68D3F8F030019308BD00008B
:10574C007802030008B5024B1B681B6B019308BD64
:10575C004802030008B5024B1B685B6B019308BD44
:10576C004802030008B5024B1B685B6C019308BD33
:10577C004802030008B5024B1B68DB6C019308BDA3
:10578C004802030008B5024B1B685B6D019308BD12
:10579C004802030008B5024B1B685B68019308BD07
:1057AC001802030008B5024B1B68DB68019308BDA7
:1057BC001802030008B5024B1B685B69019308BD16
:1057CC001802030008B5024B1B689B68019308BDC7
:1057DC002C02030008B5024B1B68DB68019308BD63
:1057EC002C02030008B5024B1B681B69019308BD12
:1057FC002C02030008B5024B1B685B69019308BDC2
:10580C002C02030008B5024B1B681B68019308BDF2
:10581C002802030008B5024B1B68DB68019308BD26
:10582C002802030008B5024B1B689B69019308BD55
:10583C002802030008B5024B1B68DB69019308BD05
:10584C002802030008B5024B1B681B6A019308BDB4
:10585C002802030008B5024B1B685B6A019308BD64
:10586C002802030008B5024B1B689B6A019308BD14
:10587C002802030008B5024B1B68DB6A019308BDC4
:10588C002802030008B5024B1B681B6B019308BD73
:10589C002802030008B5024B1B685B6B019308BD23
:1058AC002802030008B5024B1B681B6C019308BD52
:1058BC002802030008B5024B1B685B69019308BD05
:1058CC006402030008B5024B1B689B68019308BD7A
:1058DC006802030008B5024B1B68DB68019308BD26
:1058EC006802030008B5024B1B681B68019308BDD6
:1058FC003002030008B5024B1B685B69019308BDBD
:10590C003002030008B5024B1B68DB69019308BD2C
:10591C003002030008B5024B1B681B6A019308BDDB
:10592C003002030008B5024B1B685B6A019308BD8B
:10593C003002030008B5024B1B68DB6B019308BDFA
:10594C003002030008B5024B1B681B6C019308BDA9
:10595C003002030008B5024B1B685B6C019308BD59
:10596C003002030008B5024B1B68DB68019308BDCD
:10597C003C02030008B5024B1B681B69019308BD70
:10598C003C02030008B5024B1B685B69019308BD20
:10599C003C02030008B5024B1B689B69019308BDD0
:1059AC003C02030008B5024B1B68DB69019308BD80
:1059BC003C02030008B5024B1B681B6A019308BD2F
:1059CC003C02030008B5024B1B689B6A019308BD9F
:1059DC003C02030008B5024B1B681B6C019308BD0D
:1059EC003C02030008B5024B1B681B68019308BD01
:1059FC004C02030008B5024B1B681B69019308BDE0
:105A0C004C02030008B5024B1B685B69019308BD8F
:105A1C004C02030008B5024B1B689B69019308BD3F
:105A2C004C02030008B5024B1B68DB69019308BDEF
:105A3C004C02030008B5024B1B681B6A019308BD9E
:105A4C004C02030008B5024B1B685B68019308BD50
:105A5C006002030008B5024B1B689B68019308BDEC
:105A6C006002030008B5024B1B68DB68019308BD9C
:105A7C006002030008B5024B1B689B69019308BDCB
:105A8C006002030008B5024B1B68DB69019308BD7B
:105A9C006002030008B5024B1B685B6B019308BDE9
:105AAC006002030008B5024B1B681B6D019308BD17
:105ABC006002030008B5024B1B685B68019308BDCC
:105ACC002002030008B5024B1B685B69019308BDFB
:105ADC002002030008B5024B1B68DB6A019308BD6A
:105AEC002002030008B5034B1B68D3F888300193E0
:105AFC0008BD00002002030008B5034B1B68D3F857
:105B0C009430019308BD00002002030008B5024B3D
:105B1C001B68DB6B019308BD4402030008B5024B04
:105B2C001B685B68019308BD4002030008B5024B7B
:105B3C001B689B68019308BD4002030008B5024B2B
:105B4C001B68DB68019308BD4002030008B5024BDB
:105B5C001B681B69019308BD4002030008B5024B8A
:105B6C001B685B69019308BD4002030008B5024B3A
:105B7C001B689B69019308BD4002030008B5024BEA
:105B8C001B68DB69019308BD4002030008B5024B9A
:105B9C001B681B6A019308BD4002030008B5024B49
:105BAC001B681B6B019308BD4002030008B5024B38
:105BBC001B685B6B019308BD4002030008B5024BE8
:105BCC001B681B6C019308BD4002030008B5024B17
:105BDC001B685B6C019308BD4002030008B5024BC7
:105BEC001B681B68019308BD1C02030008B5024B1F
:105BFC001B685B68019308BD1C02030008B5024BCF
:105C0C001B689B68019308BD1C02030008B5024B7E
:105C1C001B685B6A019308BD1C02030008B5024BAC
:105C2C001B68DB6A019308BD1C02030008B5024B1C
:105C3C001B681B6C019308BD1C02030008B5024BCA
:105C4C001B685B6C019308BD1C0203000021FFF76D
:105C5C0039BF70477047704770470000064B994238
:105C6C0010B500F10C0405D0084601F0FBFF00282C
:105C7C0008BF0024204610BD2C8E0B00064B994209
:105C8C0010B500F10C0405D0084601F0EBFF00281C
:105C9C0008BF0024204610BD2C8E0B00064B9942E9
:105CAC0010B500F10C0405D0084601F0DBFF00280C
:105CBC0008BF0024204610BD2C8E0B0010B56821A7
:105CCC000446FEF7E4F9204610BD10B52821044621
:105CDC00FEF7DDF9204610BD10B530210446FEF765
:105CEC00D6F9204610BD6821FEF7D1B92821FEF760
:105CFC00CEB93021FEF7CBB9F0B50025EC1C8C42A7
:105D0C000DD86E1C445D875D974205D12644B14287
:105D1C0005D31D60601CF0BD01342544EEE7002066
:105D2C00F9E70000024A03490A20FFF7B3BE00BF9F
:105D3C00B1570B008C8C0B0030B40D4611461A4633
:105D4C00036809682868D3E90043A44630BC60475F
:105D5C00012A38B5044602D10B68236003E0022AFD
:105D6C0003D0032A0DD0002038BD08200D68FEF7A3
:105D7C008AF903460028F0D095E8030083E8030075
:105D8C00EBE700680028EED00821FEF780F9EAE77F
:105D9C0010B58368044613B1032201469847204688
:105DAC0010BD10B504465830FFF7F2FF04F148005F
:105DBC00BDE8104001F020BC10B54368013B04461F
:105DCC00436063B903689B689847A368013BA36071
:105DDC002BB923682046DB68BDE81040184710BD7E
:105DEC00A0F13003DAB2092A01D818467047A0F1A5
:105DFC006103052B01D857387047A0F14103052BDF
:105E0C0094BF37384FF0FF307047000010B50023B7
:105E1C000370044B04461868FFF7ACFC0123237095
:105E2C00204610BDC0E6032010B5037804461BB114
:105E3C00024B1868FFF7A6FC204610BDC0E60320F5
:105E4C0082B00346086849686A4603C26A4603CAB8
:105E5C0018601846596002B0704708B582798B7982
:105E6C009A4206D1062202F015F8B0FA80F04009E9
:105E7C0008BD0020FCE74FF0FF3303608380002057
:105E8C00704708B50246002101604160FFF7F3FF3F
:105E9C009171104608BD000010B501230361054B3C
:105EAC00024603F1100153F8044B42F8044B8B42A9
:105EBC00F9D110BD3A8E0B0010B50B460446B1B1AA
:105ECC00012A01F110020AD1014653F8040B41F8E2
:105EDC00040B9342F9D101232361204610BD411ECE
:105EEC0012F8010D01F8010F9A42F9D1F3E71022D3
:105EFC0002F008F8F1E738B5044615461A46FFF7E4
:105F0C00DBFFA581204638BD08B5026922B980891E
:105F1C00003818BF012008BD0249102201F0BAFF59
:105F2C00F6E700BF5A8E0B000069704738B50C4677
:105F3C0014220021054601F0E5FF23691BB9A38952
:105F4C002B80284638BD01232B7421462B4604F1A7
:105F5C00100251F8040B43F8040B9142F9D1F0E70D
:105F6C0080897047704708B502690B699A4206D15F
:105F7C00102201F08FFFB0FA80F0400908BD00201C
:105F8C00FCE7000001232DE9F3410361344B0C467F
:105F9C000646024603F1100153F8040B42F8040BB9
:105FAC008B42F9D144B32421204601F0F3FF04289D
:105FBC004FF0000523D1ADF8045001AFA51C0634F9
:105FCC0015F8020CFFF70CFFB0F1000812DB15F806
:105FDC00010CFFF705FF00280CDB023540EA081026
:105FEC00A54207F8010BEBD19DF8053033739DF8F2
:105FFC00043073730023336102B0BDE8F0814FF0BD
:10600C0010082421204601F0C5FFA84207D84246BB
:10601C000021304602B0BDE8F04101F073BFB8F189
:10602C00000FE9D0605DFFF7DBFE030615D400011D
:10603C0008F1FF38C7B206F808702421204601F099
:10604C00A9FF0135A84208D9605DFFF7C9FE40B22F
:10605C000028A4BF384306F808000135D1E700BF7B
:10606C003A8E0B0013B504460191FFF715FF20463D
:10607C000199FFF787FF204602B010BD38B54FF6E7
:10608C00FF730025044643800E22294605700571D6
:10609C00063001F037FF04F11400FFF7FDFE04F1A8
:1060AC002800FFF7F9FE044904F13C0001F0EFFA77
:1060BC006565204638BD00BFB8860B0010B5D0E929
:1060CC00063203EBC2029342184606D004682488B9
:1060DC008C4203F10803F6D110BD0020FCE7000050
:1060EC002DE9F04100260660074628200C46FDF7F6
:1060FC00CAFF051E05F10C080FD00123C5E90133B9
:10610C00084B2B604046FFF7C7FE0FCC2E6285F87C
:10611C00246046460FC623683360C7E900853846BD
:10612C00BDE8F081FC8D0B0070B5002505600646BE
:10613C003020FDF7A8FF044688B10123C0E90133E4
:10614C00094B03604FF6FF7383810E30FFF799FE06
:10615C00C4E90655C4E90855C4E90A55A575746027
:10616C000C343460304670BD188E0B0037B50D46BC
:10617C00044601A8FFF74AFE2A68D2F802302360D1
:10618C00D2F80630636001A8FFF74EFE204603B03C
:10619C0030BD30B5054687B00C4601A8FFF736FE7A
:1061AC002A68236812881B889A420DD1294602A8B6
:1061BC00FFF7DCFF214604A8FFF7D8FF04A902A8CB
:1061CC00FFF74BFE044600B9002401A8FFF72CFE94
:1061DC00204607B030BD000010B504466420FDF722
:1061EC0052FF68B10023C0E90033C0E90233C0E9B3
:1061FC000433C0E906330362C362C363C364C3657B
:10620C00206020B90A4A0B490A20FFF743FC002002
:10621C00FFF746FA20B1064A07490A20FFF73AFC75
:10622C00216806480022FFF783FA204610BD00BF04
:10623C00B1570B008C8C0B00CA8C0B00FD670B004C
:10624C0010B50A4C2378BFF35B8FDB070CD42046C8
:10625C00FDF72CFF40B10648FFF7BEFF2046FDF7C7
:10626C002AFF044801F010FE014810BDB8E60320D7
:10627C00C4E60320A5640B0030B50368093B012B71
:10628C008DB004460D4611D8FFF7DAFFA1880068DF
:10629C00FFF714FF034658B92022CDE904200B4A1E
:1062AC0000920B4904AA3220FFF7FCFB0DB030BD65
:1062BC006A6D002AFAD0D4E9032105F14C00CDE92E
:1062CC000312AC6D04AA03A9A047EFE70C8D0B00D9
:1062DC00A38C0B0008B50020FFF7E2F900EAE07090
:1062EC0008BD19B90A460846FFF7E2B9D1E9000121
:1062FC000022F9E70368D8690028D4BF00200120E8
:10630C00704738B5141E4368054602DB62189A4282
:10631C0000DD5C1A2A68501801191A44521A01F04F
:10632C00D7FD6A68121B6A6038BD37B50A46044649
:10633C000D4601ABD0E90001FFF7DEFC024638B197
:10634C0001992046FFF7DDFF29462046FFF7EDFFB8
:10635C0003B030BD10B50C4629B90A460846BDE855
:10636C001040FFF7ADB901212046FFF7DEFFD4E95D
:10637C0000010022F3E738B504461546FFF7B1FFDC
:10638C0000280ADB29462046FFF7E4FF002804DB3F
:10639C00BDE838400020FFF79BB938BD38B5002365
:1063AC000446836008200D46FDF76DFE18B12B687E
:1063BC0003606B684360034BE360034B2060A36096
:1063CC00204638BD455D0B005D5D0B000B6803601E
:1063DC0013B15A6801325A60704710B551F8043B3A
:1063EC00044640F8043BFFF7F1FF23680BB9FFF7B5
:1063FC0099FC204610BD10B551F8043B044640F8FA
:10640C00043BFFF7E3FF204610BD10B551F8043BE9
:10641C00044640F8043BFFF7D9FF204610BD10B5E9
:10642C000446006808B1FFF7C7FC204610BD10B544
:10643C0004460430FFF7F3FF204610BD70B5D0E9D9
:10644C000053044605EBC306AE4204D0281DFFF7EB
:10645C00E6FF0835F8E72068FFF7C8FB204670BD5B
:10646C0070B5D0E90053044605EBC306AE4204D028
:10647C00281DFFF7D4FF0835F8E72068FFF7B6FBB7
:10648C00204670BD10B504462430FFF7E9FF04F137
:10649C001800FFF7D3FF10BD70B5174B1C6854B331
:1064AC0004F15400FFF774FC04F14400FFF770FC96
:1064BC0004F13400FFF76CFC04F12400FFF768FCD6
:1064CC00D4E9065305EBC306AE4204D0281DFFF7F2
:1064DC00A6FF0835F8E7A069FFF788FB04F10C006C
:1064EC00FFF7BEFF2046FFF7A9FF20466421BDE859
:1064FC007040FDF7CCBD70BDC4E6032013B500237E
:10650C00D1E90042C1E90033036800930460436899
:10651C00426001A80193FFF782FF02B010BD8268B0
:10652C0010B50AB901F09AFBBDE81040C3681847D2
:10653C0038B50D1E0446006803DDFFF75FFB18B984
:10654C0038BDFFF753FB00202060A5600120F7E762
:10655C0008B583688B4202DAFFF7EAFF08BD012019
:10656C00FCE72DE9F0410F4641681D46194483684C
:10657C0099420446904612DC266862683E44D21B5F
:10658C003146701901F0A4FC2A464146304601F010
:10659C0091FC63682B4463600120BDE8F081FFF738
:1065AC00C7FF0028E8D1F8E7F8B50D46D0E901138C
:1065BC009942044616460BDA276862687919521B11
:1065CC00481C01F085FC7E55636801336360F8BD9F
:1065DC000131FFF7ADFF0028EED1F8E70A4641681C
:1065EC00FFF7E2BF2DE9F74304461D460F4601AB0A
:1065FC0090460A46D0E900019DF82890FFF77CFBF5
:10660C00AE1C63680246B9F1000F26D128B333449F
:10661C001B1AFF2B09D801992046FFF772FE6168FF
:10662C0020463144FFF794FF18B9606803B0BDE809
:10663C00F0836A1C0199D2B22046FFF7B5FF01998D
:10664C003A4601312046FFF7AFFF01992B464246EF
:10665C0002312046FFF785FFE7E7F118FF29E4D860
:10666C002046FFF775FF0028DFD0691CC9B2204611
:10667C00FFF7B4FF39462046FFF7B0FF61682B46A1
:10668C004246E6E730B49DF808501AB1029530BC8A
:10669C00FFF7A8BF406830BC70471FB50023C0E9A6
:1066AC00003383600622009301238DF80F201946D6
:1066BC000DF10F020446FFF7E5FF204604B010BDB4
:1066CC001FB50A46044614211046039201F062FCE1
:1066DC00002103460091039A09212046FFF7D2FFBF
:1066EC0004B010BD8842F8B504460D46164614D9C0
:1066FC00904213D2A2F10806751AA1F108072C4496
:10670C00B74218D01CB131462046FFF77EFE301D33
:10671C00FFF785FE083E083CF2E70CD0B5420AD0E4
:10672C001CB129462046FFF770FE281DFFF777FEA7
:10673C0008350834F2E7F8BDF7B5044646686846F4
:10674C00FFF763FED4E901739F4212DB0137002F80
:10675C0029DDF800FFF742FA0546F0B1D4E9001242
:10676C0001EBC202FFF7BEFF2068FFF73FFA25607E
:10677C00A7602368626803EBC60603EBC2023146CE
:10678C0006F10800FFF7AEFF1EB169463046FFF771
:10679C003CFE636801336360012501A8FFF73FFEEF
:1067AC00284603B0F0BD0025DEE7F8B5D0E900437C
:1067BC0005460F4604EBC306A64205D039462046D3
:1067CC00FFF7E7FC08B114B9F8BD0834F4E7201D55
:1067DC00FFF725FED5E9003204F1080103EBC202F4
:1067EC002046FFF77FFF6B68013B6B60ECE7000016
:1067FC002DE9F04105468EB003A80C46FFF706FBC9
:10680C002E68F31E0D2B3CD8DFE813F00E0053005E
:10681C003B00D1003B003B003B003B003B009B009E
:10682C009B009B009B009B0004A8FFF77DFC049B36
:10683C00AA891A806968049808310230FFF700FBB6
:10684C0004A906A8FFF7E1FD06A904F11800FFF75B
:10685C0073FF054607A8FFF7E2FD20230693B5B9A1
:10686C005D4B5E49009332202B4606AA0795FFF735
:10687C0019F9049B29461888FEF732FF05A8FFF783
:10688C00CEFD03A8FFF7D0FA0EB0BDE8F081544A54
:10689C00009200235149079306AA0120FFF702F941
:1068AC00E36A002BEAD004A904F12400FFF737FEB9
:1068BC00E4E7A9892046FFF701FC06460028E0D052
:1068CC000568D5E906324FF6FF71298003EBC20249
:1068DC009A4203D053F8080B4180F9E7D5E90373CA
:1068EC0007EBC308B84504D0381DFFF798FD0837EF
:1068FC00F8E700232B61D5E9067307EBC308B8450D
:10690C0004D0381DFFF78BFD0837F8E70023EB6147
:10691C00AB72E36B23B1314604F13400FFF7FFFD9A
:10692C0000232022CDE906232E4A00922B4906AAE9
:10693C000120FFF7B7F8314604F11800FFF735FFD7
:10694C009FE7A9892046FFF7B9FB002899D0E36C93
:10695C00002B96D000230D2EADF8163001D0102E42
:10696C0017D1002369681A4606258DF81530049155
:10697C008DF814200690DDE9040109AB8DF81C603C
:10698C00089583E80300236D06A904F14400984799
:10699C0077E70F2E01BF2B7A696803F001020825F7
:1069AC000FBFC3F340031A4619461D46DDE7A989FC
:1069BC002046FFF783FB014600283FF462AFE36DEE
:1069CC00002B3FF45EAF6B68069306AA236E04F1AE
:1069DC005400984755E700BF248D0B00A38C0B0087
:1069EC004A8D0B00678D0B002DE9F04307468BB0E9
:1069FC006846FFF70BFA3B68D3E9064504EBC5057F
:106A0C00AC4235D02422002101A801F07BFA236886
:106A1C000022188801A9FEF777FE064608B1083453
:106A2C00EEE79DF80880B8F1010FF8D1DFF8489037
:106A3C00D9F80000FEF7A6FE8DF8006023683146F9
:106A4C001888FEF74DFE051E0BDBD9F80000FEF78B
:106A5C0091FE38688DF8008021461830FFF7A5FEAE
:106A6C0035466846FFF7E0F928460BB0BDE8F083E1
:106A7C006FF0A905F5E700BFC0E6032013B50B4680
:106A8C000246D0E900016C4684E8030093E8030059
:106A9C0082E8030094E8030083E8030002B010BD11
:106AAC0038B505460C46FFF7E9FFAB68A268AA604B
:106ABC00A360EB68E268EA60E36038BD70B5044639
:106ACC008CB00E4601921D46FFF7D8FA267101993B
:106ADC0004F13C0000F0EFFD04F14C06CDB1109B2D
:106AEC00029502A904A80393FFF758FC002308A9F8
:106AFC0004A80A93FFF7D4FF314608A8FFF7D0FF8C
:106B0C0008A8FFF745F904A8FFF742F920460CB096
:106B1C0070BD0695EAE700002DE9F04F87B01D46E1
:106B2C00DDE9104380468B4692461299039300226E
:106B3C00682002910492FDF7A6FA061E06F10C09D4
:106B4C0018D001223746C6E901220299154A47F8A6
:106B5C00202B039B00915A4651464846FFF7AEFF47
:106B6C000FCD0FC72B683B600FCC06F134050FC55A
:106B7C0023682B6004A94046CDE90496FFF7BEFCC0
:106B8C0005A8FFF74CFCD8F800303BB9064A07497A
:106B9C000A2007B0BDE8F04FFEF77CBF07B0BDE898
:106BAC00F08F00BFE08D0B00B1570B008C8C0B00ED
:106BBC008842F8B504460D46164614D9904213D2B5
:106BCC00A2F10806751AA1F108072C44B74218D097
:106BDC001CB131462046FFF70EFC301DFFF71FFCA1
:106BEC00083E083CF2E70CD0B5420AD01CB129464D
:106BFC002046FFF700FC281DFFF711FC0835083470
:106C0C00F2E7F8BD70B50E1E054611DDF000FEF77B
:106C1C00E5FF044658B1D5E9001201EBC202FFF7BB
:106C2C00C7FF2868FEF7E2FF2C60AE60012070BD44
:106C3C000024F6E773B5044645686846FFF7DBFBAE
:106C4C00D4E90113994210DA2368626803EBC50595
:106C5C0003EBC202294605F10800FFF7A9FF8DB925
:106C6C00636801336360012606E001312046FFF7BB
:106C7C00C9FF06460028E7D101A8FFF7D0FB304634
:106C8C0002B070BD69462846FFF7B5FBE8E78842BD
:106C9C00F8B504460D46164614D9904213D2A2F10B
:106CAC000806751AA1F108072C44B74218D01CB17C
:106CBC0031462046FFF791FB301DFFF7B0FB083E35
:106CCC00083CF2E70CD0B5420AD01CB1294620464C
:106CDC00FFF783FB281DFFF7A2FB08350834F2E70A
:106CEC00F8BD70B50E1E054611DDF000FEF776FFFF
:106CFC00044658B1D5E9001201EBC202FFF7C7FFF9
:106D0C002868FEF773FF2C60AE60012070BD002474
:106D1C00F6E773B5044645686846FFF75EFBD4E9B1
:106D2C000113994210DA2368626803EBC50503EB83
:106D3C00C202294605F10800FFF7A9FF8DB9636867
:106D4C0001336360012606E001312046FFF7C9FFDD
:106D5C0006460028E7D101A8FFF761FB304602B0D8
:106D6C0070BD69462846FFF738FBE8E72DE9F04F80
:106D7C001746A1B080460AA80E46FFF747F83C68B4
:106D8C00237953B939464046FFF727FB0AA8FFF78A
:106D9C004BF8404621B0BDE8F08F3368D3E903537C
:106DAC0005EBC303039304F1280A04F1140B039BB2
:106DBC009D4221D0D5F80090584609F11401FFF7F7
:106DCC00D2F8B8B109F128015046FFF7CCF888B1D8
:106DDC002368D9F80020534033F47F430AD1202292
:106DEC00CDE915235E4A009215AA5E493220FEF7C2
:106DFC0059FEC7E70835DAE75046FFF785F860B962
:106E0C005949012215A815ADFFF756F80FCDD446F8
:106E1C00ACE80F002B68CCF800303368D3E9005392
:106E2C0005EBC30B5D45A94651466ED055F8080BD2
:106E3C00FFF799F80028F5D004F1140A5046FFF733
:106E4C0063F888B9494B48491A88013292B21A80C2
:106E5C0015A8012315ADFFF74EF80FCDD446ACE8BD
:106E6C000F002B68CCF80030414B159328220021E1
:106E7C0016A801F047F8514604A8FFF757F804ABE1
:106E8C0018AA0DF1200C18685968154603C508336B
:106E9C0063452A46F7D11868286023798DF8583055
:106EAC00D9F800309B8AADF87430E36B1793314BF3
:106EBC000022A11D15A8CDE91E34FEF72FFC0028D9
:106ECC007FF460AF01232370346839460C340DA86D
:106EDC00FFF783FA20460DA9FFF71BFF04460EA807
:106EEC00FFF79DFA002C7FF44DAF2023CDE90D3434
:106EFC00214B00930DAA234677E739464046FFF70E
:106F0C006CFA0CA8FFF78BFA40E70BA8FFF7E8F830
:106F1C00514615A8FFF70AF80B9A0023143215A94D
:106F2C000120FEF7E7FB0028E7D135680BA90DA877
:106F3C00FFF761FA28460DA9FFF77CFE05460EA85F
:106F4C00FFF76DFA002DD8D032685368126803F140
:106F5C000053013B0CA802EBC309FFF760FA6BE787
:106F6C00868D0B00A38C0B004A8E0B00BCE6032015
:106F7C0003002C0085620B00B18D0B00024800232E
:106F8C000360FEF7EFBB00BFC0E6032000224068A1
:106F9C001146FEF7FBBD002240681146FEF706BE07
:106FAC0040680022FEF7FABD4068002281F0010122
:106FBC00FEF7E4BD002340681A461946FEF7D6BD1D
:106FCC00002340681A461946FEF7C8BD00224068E7
:106FDC001146FEF7BBBD002240681146FEF7A6BD68
:106FEC00406800220221FEF7A9BD002340681A4622
:106FFC00FEF794BD024B03225A60024A1A60704796
:10700C00C8E60320748E0B007047F8B5064615468B
:10701C000C468F18BC4206D0336814F8011B9B68D1
:10702C0030469847F6E72846F8BD007C0022FEF76C
:10703C0009BC007C0021FEF70DBC007C0021FEF792
:10704C0011BC007C0021FEF715BC007C0021FEF772
:10705C0019BC10B514210446FDF719F8204610BDD3
:10706C0010B54FF47A73044608460021C4E90113A5
:10707C00034B236020741146FEF714FC204610BD10
:10708C00B08E0B00007C0022FEF7BCBB0023007C02
:10709C001A461946FEF7BEBB007C0022FEF7C2BBA7
:1070AC00C9B2FFF7F9BF007C0022FEF7C3BB012178
:1070BC00FFF7F9BF704710B518210446FCF7E7FF3E
:1070CC00204610BDF0B5037D062B8DB00E4600F1A9
:1070DC0004074FF0000412D000F1080515F8011D4B
:1070EC000A22304600F05DF9AF42044419D0002C5E
:1070FC00F4D02E21304600F03BF90444EEE72F2368
:10710C006A4639460A208DF80040FEF7D3FB6846E4
:10711C0000F038FF33680246DB6869463046984712
:10712C00044620460DB0F0BD10B5054B04461122A7
:10713C0040F8043B002100F0E5FE204610BD00BFE6
:10714C00D88E0B000346074A10B543F8042B01F107
:10715C00100251F8044B43F8044B9142F9D10A78D0
:10716C001A7010BDD88E0B0010B59DF8084044EA7B
:10717C00032343EA024242EA01610423416003759E
:10718C0010BD000007B5064B0360CB7800938B78DD
:10719C004A780978FFF7E8FF03B05DF804FB00BFFD
:1071AC00D88E0B00014B024A1A607047D0E60320C0
:1071BC00E48E0B00002340681A46FEF7AFBC406813
:1071CC0000220221FEF7BABC002240681146FEF7ED
:1071DC00ADBC002240681146FEF7B8BC00234068E5
:1071EC001A461946FEF7BABC002340681A461946DF
:1071FC00FEF7BCBC40680021FEF7E0BC40680021F3
:10720C00FEF7E4BC4068002281F00101FEF7B6BC39
:10721C0040680022FEF7C2BC002240681146FEF70F
:10722C00C5BC002240681146FEF7B0BC2DE9F04306
:10723C0095B014460D460746FFF776FF00211C2239
:10724C000DA8009100F05EFE40230C9320466B4687
:10725C000CAA0021FEF73EFB044600284BD1024647
:10726C0001216868FEF772FC02218046224668689C
:10727C00FEF76CFC009E81462146002E3BD0002977
:10728C0039D17368022B03D00A2B11D0F669F4E7BD
:10729C00B8F1000FFAD0716906A8043107ADFFF7F9
:1072AC0071FF0FCD3C1D0FC42B6823704146EDE7D9
:1072BC00B9F1000FEAD07469102201A800F022FE87
:1072CC0006238DF8143001AD04F108031834186846
:1072DC0059682A4603C20833A3421546F7D101A9BF
:1072EC0006A807ADFFF72EFF0FCD3C1D0FC42B6872
:1072FC0023704946CAE70098FEF7E4FA384615B001
:10730C00BDE8F083024B034A1A6000225A607047B2
:10731C00D4E60320F08E0B00F8B506460D468F1808
:10732C000024BD420CD0336815F8011B9B68304615
:10733C009847031E01DB1C44F3E7002C08BF1C46D6
:10734C002046F8BD13B50446084659B1019100F02A
:10735C0019FE23680199DB680246204602B0BDE89D
:10736C001040184702B010BD08B5FFF7EBFF08BD81
:10737C0003689B68184738B50D210546FFF7F8FFE1
:10738C000A2104462846FFF7F3FF204438BD38B5E0
:10739C000546FFF7D7FF04462846FFF7ECFF2044CD
:1073AC0038BD30B58BB00023012A8DF8243098BF3E
:1073BC000A2209AC0D46B1FBF2F101FB125303F0AA
:1073CC00FF03092B94BF30333733DBB2AA4204F8E6
:1073DC00013DEFD92146FFF7B5FF0BB030BD2DE9CC
:1073EC00F04186B000AF05460E46381D14211446F8
:1073FC003B60FEF70BFC13280ED8391D2846FFF70F
:10740C00A1FF04461EB12846FFF7B5FF04442046F1
:10741C001837BD46BDE8F08100F1080323F00703DF
:10742C00E846ADEB030D2246411C3B686846FEF76F
:10743C00EDFB69462846FFF785FF0446C546E1E7A4
:10744C0010B50446FEF716FB844208D01CB1BDE80B
:10745C001040FEF7FFBABDE81040FEF703BB10BDAD
:10746C0070B505460E461446FEF704FB50B144EACF
:10747C00062444EA0540FEF7E5FABDE87040E72033
:10748C00FEF700BB70BD0000014B00229A607047F4
:10749C00DCE603200021FEF75DBA0021FEF752BAAC
:1074AC0010B5044608462170FEF72CFA00236360E1
:1074BC00204610BD13B504460078FFF7EEFF58B90F
:1074CC00207801904FF6FF71FEF70CFA019802B08C
:1074DC00BDE81040FFF7DEBF02B010BD0078FFF72B
:1074EC00D9BF0000400830B51860002418688842E5
:1074FC00E5B206D90134082C02D040081860F5E733
:10750C000725024B5B5D137030BD00BF248F0B0051
:10751C002DE9F04306468FB000780C46FFF7BDFF0F
:10752C0000281BDB35781422002109A800F0EAFCA6
:10753C000B23002209A92846ADF82430FEF7F2F9F6
:10754C009DF82D3013B19DF82C5055B10027B9463C
:10755C00B846012523795DB1C3B100200FB0BDE859
:10756C00F083DDF830809DF834909DF83570F1E7AC
:10757C00002B35D1A368434508D18DF820908DF8A8
:10758C002170BDF82020A3899A42E6D00023A1687F
:10759C008DF80F300A9804AB0DF10F02FFF7A2FF24
:1075AC00217985B989B9A36843450ED38DF820900C
:1075BC008DF82170BDF82020A3899A4205D1049B37
:1075CC00434502D1C9E70029F9D100230193637B1C
:1075DC0000939DF80F20237B3078FEF7ABF9BCE7C6
:1075EC00CDE900552B462A460121F5E708B5007870
:1075FC00FEF780F9C0B208BD10B504460068FEF76E
:10760C00F5FA204610BD10B50446006808B1FEF727
:10761C00EDFA0023C4E90133236010BD38B50446EC
:10762C000D4600680131FEF7E9FA10B1C4E9000516
:10763C00012038BD10B50368044623B143688B4262
:10764C0001D3012010BD2046FFF7E8FF0028F9D038
:10765C00A368002BF5D122681370F2E737B50D46FD
:10766C00114601920446FFF7E5FF019A28B920461E
:10767C00FFF7C9FF204603B030BDA2602946206841
:10768C0000F018FC2268A3680021D154F2E7002313
:10769C0013B5C0E9003304468360037341B1084657
:1076AC00019100F06FFC019902462046FFF7D6FFCE
:1076BC00204602B010BD13B5044659B108460191DD
:1076CC0000F060FC019902462046FFF7C7FF2046F8
:1076DC0002B010BDFFF797FFF9E70000054B02223F
:1076EC001A60054B054A9A600020C3E90000FEF7BA
:1076FC00E1B900BFF8E60320ECE603200000FFFF31
:10770C00024B1A68024B1A60704700BF78E50320E1
:10771C00FCE6032070474174704708B5007CFEF707
:10772C0051F920EAE07008BD08B5007CFEF722F99B
:10773C0020EAE07008BD08B5007CFEF72BF940EAA2
:10774C00E07008BD08B5007CFEF71CF940EAE0705B
:10775C0008BD007CFEF726B937B5457C04462DB133
:10776C00207C03B0BDE83040FEF7FCB8007C0191F2
:10777C00FEF728F900280199F2DC284603B030BD49
:10778C0010B514210446FCF782FC204610BD000005
:10779C0010B54FF47A730446084611460022C4E92A
:1077AC000123044B2360012320746374FEF712F948
:1077BC00204610BD508F0B004174704770477047C6
:1077CC0008B50021007CFEF725F940EAE07008BD01
:1077DC0008B50121007CFEF71DF940EAE07008BDF8
:1077EC0008B5007CFEF70EF920EAE07008BD08B57C
:1077FC00007CFEF7FFF820EAE07008BD13B50446E4
:10780C00007C0191FEF7FEF80028019901DC607CF8
:10781C0020B1207CFEF706F920EAE07002B010BD22
:10782C00007CFEF707B910B514210446FCF72FFCB9
:10783C00204610BD10B54FF47A730446084600215B
:10784C00C4E90113044B23600123207463741146B3
:10785C00FEF7C8F8204610BD808F0B0010B514221F
:10786C000446002100F04EFB204610BD10B50F4C15
:10787C0088B003A8FFF7F2FF2178BFF35B8F11F0FC
:10788C0001010FD120460191FCF710FC019948B180
:10789C0003AA0748FFF7CEFF2046FCF70CFC05486F
:1078AC0000F0F2FA024808B010BD00BF00E7032058
:1078BC0004E70320C9770B00002240681146FEF74D
:1078CC0045B9002240681146FEF760B900224068B5
:1078DC001146FEF76BB940680022FEF75FB94068AD
:1078EC00002281F00101FEF749B9002340681A46D5
:1078FC001946FEF73BB9002340681A461946FEF7B5
:10790C002DB9002240681146FEF710B940680022DC
:10791C000221FEF713B9002340681A46FEF7FEB8A1
:10792C00024B04225A60024A1A60704718E703207F
:10793C00B08F0B00014B1860704700BF7CE5032033
:10794C0008B50B4B43B1FFF791FF03681B699847D0
:10795C00002801DDAFF30080064B43B100F058F96D
:10796C0003681B699847002801DDAFF3008008BD50
:10797C00000000000000000008B5FFF7E1FFFDF774
:10798C0019FF014B186008BD28E703200548064A7B
:10799C00064908B5121A00F08DFA054B054A1A6013
:1079AC0008BD00BF00F4032004F4032094910B00E5
:1079BC0000F403201E1C279A07B5002300931A46D7
:1079CC006FF07701FEF798F803B05DF804FB000048
:1079DC0007B543880A2B08D0502B0BD1094B1B68D9
:1079EC004BB103B05DF804EB1847FFF7E5FF03B0AC
:1079FC005DF804FB002300931A466FF07701FEF745
:107A0C007BF8F4E724E7032010B512480021FEF7B9
:107A1C0015F9114B1A68114B9A42114B0CBF0122EC
:107A2C0000221A7001D0FFF7B1FFFDF7B3FE044638
:107A3C0000F070FA0B4B13B12046AFF3008000211D
:107A4C000848FEF763F8BDE8104007480021FEF730
:107A5C0049B800BF41790B0000F403201E1C279A83
:107A6C0020E7032000000000DD790B00232813B56C
:107A7C0002D9002002B010BDA0F10B03022B1AD8C2
:107A8C00174C2178BFF35B8F11F001010BD120460D
:107A9C000191FCF70BFB019928B11248FFF700FD8F
:107AAC002046FCF708FB0F4B1878FDF733FF002836
:107ABC00DFD10120DEE7012809D800F069F80021A8
:107ACC00007CFDF7E7FE80F00100C0B2D2E7093878
:107ADC000128EED800F09CF8007CFDF76BFFF2E774
:107AEC00ACE60320B0E60320232838B504460D4647
:107AFC000AD8FF2908D0FFF7B9FF28B1294620463C
:107B0C00BDE83840FDF75EBE38BD38B504460D46BD
:107B1C00FDF760FEFF2810D0062804D84D2323FA69
:107B2C0000F0C30709D42046FFF7A0FF28B129466F
:107B3C002046BDE83840FDF755BE38BD10B50446AB
:107B4C00FDF748FE031FDBB2012B08D92046FFF7D7
:107B5C008DFF20B12046BDE81040FDF74BBE002044
:107B6C0010BD704738B5202514230446036085608A
:107B7C0005610649284600F06FF804496060284604
:107B8C0000F06AF8E060204638BD00BFE48F0B00BF
:107B9C0030B50E4D2978BFF35B8F11F0010487B01F
:107BAC0011D12846FCF782FA68B101A8FFF7DAFF79
:107BBC0001AA21460648FFF753FA2846FCF77BFA40
:107BCC00044800F061F9024807B030BD2CE70320EF
:107BDC0030E703206F7B0B007047000038B504467C
:107BEC0014252A46002100F08DF9258040250749EF
:107BFC0025812846258200F02FF80449606028462C
:107C0C0000F02AF8E060204638BD00BFE48F0B007E
:107C1C0030B50E4D2978BFF35B8F11F0010487B09E
:107C2C0011D12846FCF742FA68B101A8FFF7D6FF3C
:107C3C0001AA21460648FFF7ABFD2846FCF73BFAA4
:107C4C00044800F021F9024807B030BD44E7032096
:107C5C0048E70320E57B0B00FCF717BA08B5FDF7E6
:107C6C00DDFF0000014900F0F9B800BF00900B00E7
:107C7C007FB500241023CDE90234036815469E69B4
:107C8C0012686B46CDE90044B0479DF8043003F010
:107C9C000603062B03BF009B2B600120204604B07B
:107CAC0070BD0098904214BF012006207047000060
:107CBC0010B5034B0360044600F0CDF8204610BD10
:107CCC0040900B0010B50446FFF7F2FF2046082148
:107CDC00FCF7DDF9204610BD2DE9F0411F46DDE92A
:107CEC000834DDF8188098450646154607D10799E3
:107CFC0000F0B4F818B165710020BDE8F081394688
:107D0C00304600F0ABF80028F6D00123C4F8008010
:107D1C002571A371F0E738B515461C4600F09EF8A6
:107D2C0020B10823E36006232560237138BD73B5A9
:107D3C0005460C4601921E4600F090F850B9032EF1
:107D4C0008D82368019A5B692946204602B0BDE831
:107D5C007040184702B070BD10B5034B0360044669
:107D6C00FFF7A6FF204610BDA0900B0010B50446EF
:107D7C00FFF7F2FF20460C21FCF789F9204610BDD5
:107D8C00F7B5089F974205460E4614460AD0A868D8
:107D9C0002680897156A31462246AC4603B0BDE826
:107DAC00F04060471946019300F058F8019B0028F9
:107DBC00EDD0062003B0F0BD2DE9F14F0D4619466C
:107DCC00DDE90A4BDDE90CA681461746984600F022
:107DDC0045F890B1002D3460377109DB61198A4583
:107DEC000CBF06210121B171002001B0BDE8F08F5C
:107DFC000235F9D10123B371F6E7544506D1594642
:107E0C00484600F02BF808B17771EDE7D9F8080077
:107E1C000368CDE90CA6CDE90A4BDC693A4643462A
:107E2C002946A44601B0BDE8F04F60472DE9F0416A
:107E3C0007460C4615461E46FFF76DFF48B9B86855
:107E4C0003689F692A4633462146BC46BDE8F0418B
:107E5C006047BDE8F081704700207047814208B54B
:107E6C000ED0406803782A2B0CD049680B782A2B4B
:107E7C0008BF013100F07CF8B0FA80F0400908BD71
:107E8C000120FCE70020FAE7002301461A461846B9
:107E9C0000F08CB810B501390244904201D1002099
:107EAC0005E0037811F8014FA34201D0181B10BD57
:107EBC000130F2E70A44914200F1FF3300D17047E0
:107ECC0010B511F8014B03F8014F9142F9D110BDD7
:107EDC00884210B501EB020402D98442234607D82C
:107EEC00431EA14208D011F8012B03F8012FF8E72B
:107EFC00024401468A4200D110BD13F8014D02F82C
:107F0C00014DF7E702440346934200D1704703F852
:107F1C00011BF9E738B5104B1D68AB6B0446B3B9C0
:107F2C001820FDF75BFE0246A86320B90B4B0C48EA
:107F3C004221FDF77BFE0B490B4BC0E900130B4BA9
:107F4C0083600B23838100210120C2E90401AB6B08
:107F5C0000221C615A6138BD7CE50320D9900B00CE
:107F6C00F0900B000E33CDAB34126DE6ECDE050059
:107F7C0010F8012B11F8013B012A28BF9A42F7D0C7
:107F8C00D01A7047034613F8012B002AFBD1181A9C
:107F9C000138704710B5024601448A42134603D09B
:107FAC001C780132002CF8D1181A10BD2DE9F843B9
:107FBC00DFF8B8800646D8F800001F460D469146FB
:107FCC0000F056F8254B1C6834B9254C1C60254B29
:107FDC0013B11B68C4F8883063681F2B07DDD8F811
:107FEC00000000F047F84FF0FF30BDE8F8834EB3C7
:107FFC00D4F8880088B91C4B23B9D8F8000000F0DD
:10800C0038F8F0E74FF48470FDF7E8FD0028F4D061
:10801C000023C0E94033C4F88800636840F823901B
:10802C0001229A4000EB8301D0F800311343C0F8D1
:10803C000031022EC1F8807002BFD0F80431134316
:10804C00C0F804316368D8F800005A1C023362602F
:10805C0044F8235000F00EF80020C6E7E8E70320B0
:10806C005CE7032000000000E95B0B00E0E5032067
:10807C0070477047704700001D400B0059400B00C3
:10808C0081400B0085400B000000000043616C6CCC
:10809C00206F6E2070757265207669727475616CD4
:1080AC000050686F6E652073656E742061206E657C
:1080BC0077206D65737361676500444953504C417B
:1080CC005920434F4E4E45435445440064657669F0
:1080DC00636549440036453430303030312D4235FB
:1080EC0041332D463339332D453041392D4535300B
:1080FC004532344443434139450036453430303001
:10810C0030322D423541332D463339332D453041F4
:10811C00392D4535304532344443434139450036D9
:10812C00453430303030332D423541332D463339E0
:10813C00332D453041392D45353045323444434398
:10814C004139450074780072780000000000003E50
:10815C005B4F5B3E3E6B4F6B3E1C3E7C3E1C183CAB
:10816C007E3C181C577D571C1C5E7F5E1C00183C07
:10817C001800FFE7C3E7FF0018241800FFE7DBE750
:10818C00FF30483A060E2629792926407F05050737
:10819C00407F05253F5A3CE73C5A7F3E1C1C080893
:1081AC001C1C3E7F14227F22145F5F005F5F060958
:1081BC007F017F006689956A606060606094A2FFB1
:1081CC00A29408047E040810207E201008082A1CA3
:1081DC0008081C2A08081E101010100C1E0C1E0C6F
:1081EC0030383E3830060E3E0E060000000000000F
:1081FC00005F00000007000700147F147F14242A7E
:10820C007F2A12231308646236495620500008074F
:10821C000300001C2241000041221C002A1C7F1C70
:10822C002A08083E08080080703000080808080872
:10823C00000060600020100804023E5149453E00D9
:10824C00427F400072494949462141494D33181437
:10825C00127F1027454545393C4A49493141211186
:10826C0009073649494936464949291E0000140078
:10827C00000040340000000814224114141414149B
:10828C00004122140802015909063E415D594E7CF9
:10829C001211127C7F494949363E414141227F41AE
:1082AC0041413E7F494949417F090909013E41410C
:1082BC0051737F0808087F00417F41002040413FF7
:1082CC00017F081422417F404040407F021C027F06
:1082DC007F0408107F3E4141413E7F090909063E5B
:1082EC004151215E7F09192946264949493203012A
:1082FC007F01033F4040403F1F2040201F3F40383C
:10830C00403F631408146303047804036159494D16
:10831C0043007F4141410204081020004141417F4C
:10832C0004020102044040404040000307080020C2
:10833C00545478407F2844443838444444283844C2
:10834C0044287F385454541800087E090218A4A4F9
:10835C009C787F0804047800447D40002040403D18
:10836C00007F1028440000417F40007C0478047892
:10837C007C080404783844444438FC182424181825
:10838C00242418FC7C080404084854545424040481
:10839C003F44243C4040207C1C2040201C3C40306E
:1083AC00403C44281028444C9090907C4464544C9D
:1083BC0044000836410000007700000041360800F8
:1083CC0002010204023C2623263C1EA1A161123AA2
:1083DC004040207A385454555921555579412254EE
:1083EC00547842215554784020545579400C1E52F3
:1083FC007212395555555939545454593955545498
:10840C00580000457C410002457D420001457C40FE
:10841C007D1211127DF0282528F07C545545002042
:10842C0054547C547C0A097F4932494949323A44B4
:10843C0044443A324A4848303A4141217A3A42401F
:10844C002078009DA0A07D3D4242423D3D404040F1
:10845C003D3C24FF2424487E4943662B2FFC2F2BC4
:10846C00FF0929F620C0887E090320545479410065
:10847C0000447D413048484A32384040227A007AE4
:10848C000A0A727D0D19317D2629292F28262929C2
:10849C00292630484D4020380808080808080808E4
:1084AC00382F10C8ACBA2F102834FA00007B00000B
:1084BC0008142A142222142A14085500550055AA0F
:1084CC0055AA55AAFF55FF55FF000000FF001010DC
:1084DC0010FF00141414FF001010FF00FF1010F018
:1084EC0010F0141414FC001414F700FF0000FF002B
:1084FC00FF1414F404FC141417101F10101F101F79
:10850C001414141F00101010F0000000001F1010A5
:10851C0010101F10101010F010000000FF101010A1
:10852C00101010101010FF10000000FF140000FFBE
:10853C0000FF00001F10170000FC04F414141710A7
:10854C00171414F404F40000FF00F714141414149A
:10855C001414F700F7141414171410101F101F1410
:10856C001414F4141010F010F000001F101F000071
:10857C00001F14000000FC140000F010F01010FF9D
:10858C0010FF141414FF141010101F00000000F042
:10859C0010FFFFFFFFFFF0F0F0F0F0FFFFFF000017
:1085AC00000000FFFF0F0F0F0F0F3844443844FC3E
:1085BC004A4A4A347E02020606027E027E02635555
:1085CC004941633844443C04407E201E2006027E10
:1085DC00020299A5E7A5991C2A492A1C4C72017222
:1085EC004C304A4D4D303048784830BC625A463D8C
:1085FC003E494949007E0101017E2A2A2A2A2A4441
:10860C00445F444440514A444040444A5140000075
:10861C00FF0103E080FF000008086B6B0836123680
:10862C002436060F090F0600001818000000101061
:10863C00003040FF0101001F01011E00191D17121F
:10864C00003C3C3C3C00000000000000000000002E
:10865C00000000000000000000000000714A0B0048
:10866C0025730B00A1400B0077440B0079440B00E1
:10867C00AB440B0087440B0099440B00B9430B002F
:10868C0077440B00A3460B00A1460B00C3440B0020
:10869C0001450B003B450B0081450B009D450B0034
:1086AC0021460B0064656661756C7420004D534265
:1086BC00004C5342003C53504953657474696E67C7
:1086CC00732064656661756C743E003C535049536D
:1086DC00657474696E677320257325752025732066
:1086EC004D4F444525753E00000000000000000081
:1086FC00AD4B0B007F4B0B00814B0B0000000000BF
:10870C000001800000000000000000000380000059
:10871C000000000000000007C00000000000000086
:10872C00000007C00000000000000000000FC000A7
:10873C0000000000000000001FE00000000000002E
:10874C000000001FE00000000000000000003FE0FF
:10875C000000000000000000003FF00000000000DE
:10876C00000000007FF0000000000000001FF87FF8
:10877C00F0000000000000003FFE7FF00000000051
:10878C000000003FFF7FF0000000000000001FFF12
:10879C00FBE0000000000000000FFFF9FFC000002C
:1087AC00000000000FFFF9FFF800000000000007B8
:1087BC00FFF1FFFF00000000000003FC73FFFF80CF
:1087CC00000000000001FE3FFFFF800000000000E1
:1087DC0000FF1E0FFF000000000000007FFE1FFCCA
:1087EC00000000000000003FFFFFF8000000000048
:1087FC0000000FDFFFE0000000000000001F19FF69
:10880C00C0000000000000003F3CFF000000000022
:10881C000000007E7CF800000000000000007FFEDD
:10882C007C0000000000000000FFFFFC00000000C6
:10883C0000000000FFFFFE0000000000000000FF31
:10884C00FFFE0000000000000001FFEFFE00000032
:10885C000000000001FFCFFE00000000000000033C
:10886C00FF07FE0000000000000003FC07FE0000F4
:10887C00000000000003F003FE00000000000000F8
:10888C00018000FE000000000000000000007E00DF
:10889C000000000000000000003E0000000000008E
:1088AC00000000000C000000000000078000FC002D
:1088BC000003C0000000078001FC000003C00000A2
:1088CC0000078001FC000003C0000000078001E0ED
:1088DC000000001E000000078001E00000001E00E8
:1088EC007FE3F79FF9FDE7787BDFC0FFF7FFBFFD64
:1088FC00FDFF787BDFC0FFF7FFBFFDFDFF787BDF5F
:10890C00C0F0F787BC3DE1FF787BDE00F0F787BC59
:10891C003DE1F0787BDE0000F787803DE1E0787B7D
:10892C00DE007FF7879FFDE1E0787BDE00FFF787B5
:10893C00BFFDE1E0787BDE00F0F787BC3DE1E0783D
:10894C007BDE00F0F787BC3DE1E0787BDE00F0F7E2
:10895C0087BC3DE1E0787BDE00FFF7FFBFFDE1E087
:10896C007FFBDFC0FFF7FFBFFDE1E07FFBDFC07CDB
:10897C00F3F39F3DE1E03E7BCFC000000000000020
:10898C000000000000FFFFFFFFFFFFFFFFFFFFC025
:10899C00FFFFFFFFFD68DB111A31C0FFFFFFFFFD7A
:1089AC002B5AFB6AEFC0FFFFFFFFFD4B5B3B1A33FB
:1089BC00C0FFFFFFFFFD6B5BDB6AFDC000006000CA
:1089CC0000000000000000000000000000E00000BB
:1089DC00000000000000000000000001E0000000AA
:1089EC000000000000000000000001F0000000008A
:1089FC0000000000000000000003F0000000000078
:108A0C00000000000000000007F000000000000063
:108A1C000000000000000007F8000000000000004B
:108A2C000000000000000FF800000003C0007E00F2
:108A3C000001E0007F0FF800000003C000FE000002
:108A4C0001E000FFEFF800000003C000FE00000191
:108A5C00E000FFFFF800000003C000F00000000F72
:108A6C00007FFE7FC0000003C000F00000000F007C
:108A7C003FFE7FF83FF1FBCFFCFEF3BC3DEFE01F68
:108A8C00FE7FFF7FFBFFDFFEFEFFBC3DEFE01FC65E
:108A9C00FFFF7FFBFFDFFEFEFFBC3DEFE00FE3C7F8
:108AAC00FE787BC3DE1EF0FFBC3DEF0007FF87FCAA
:108ABC00787BC3DE1EF0F83C3DEF0001FFFFF000B9
:108ACC007BC3C01EF0F03C3DEF0001F37FE03FFBA9
:108ADC00C3CFFEF0F03C3DEF0003E33F807FFBC3D0
:108AEC00DFFEF0F03C3DEF0007E73C00787BC3DE97
:108AFC001EF0F03C3DEF0007FFBE00787BC3DE1E8E
:108B0C00F0F03C3DEF0007FFFE00787BC3DE1EF06B
:108B1C00F03C3DEF000FFFFE007FFBFFDFFEF0F0AF
:108B2C003FFDEFE00FFFFF007FFBFFDFFEF0F03FAC
:108B3C00FDEFE00FF9FF003E79F9CF9EF0F01F3DFD
:108B4C00E7E01FF1FF000000000000000000000043
:108B5C00001F80FF007FFFFFFFFFFFFFFFFFFFE015
:108B6C001C007F007FFFFFFFFEB46D888D18E000B6
:108B7C00001F007FFFFFFFFE95AD7DB577E0000085
:108B8C000F007FFFFFFFFEA5AD9D8D19E0000006D5
:108B9C00007FFFFFFFFEB5ADEDB57EE000000000ED
:108BAC0000000000014C0B00194C0B00714A0B002B
:108BBC0025730B002D4C0B0077440B0079440B00F4
:108BCC00AB440B0087440B0099440B00B9430B00DA
:108BDC0077440B00A3460B00CB4D0B0073530B00DB
:108BEC0025530B003B450B0081450B009D450B00AD
:108BFC0021460B000080C0E0F0F8FCFE00010307EA
:108C0C000F1F3F7FAED580A8D300408D2000A1C898
:108C1C00DB40A4A62EAFDA02818FDA1281DA028150
:108C2C002200FF21000000000000000000000000F6
:108C3C0099550B00B9550B00714A0B0025730B00AD
:108C4C002D4C0B0077440B0079440B00AB440B000C
:108C5C0087440B0099440B00B9430B0077440B007D
:108C6C00A3460B00CB4D0B0073530B0025530B008D
:108C7C003B450B0081450B009D450B0021460B002D
:108C8C00417373657274696F6E4661696C75726558
:108C9C002066616C736500776972696E672E626C11
:108CAC006500537461727420646973636F766572C6
:108CBC00696E672073657276696365732E00417304
:108CCC0073657274696F6E4661696C757265206844
:108CDC00616C5F626C655F737461636B5F696E6915
:108CEC0074286E756C6C70747229203D3D2053593C
:108CFC005354454D5F4552524F525F4E4F4E4500B7
:108D0C005065657220646576696365206973206DB2
:108D1C00697373696E6721004661696C65642074C0
:108D2C006F20617070656E6420706565722043659C
:108D3C006E7472616C206465766963652E00436F96
:108D4C006E6E65637465642062792043656E74721F
:108D5C00616C206465766963652E00446973636F8A
:108D6C006E6E65637465642062792072656D6F74D4
:108D7C0065206465766963652E004475706C696363
:108D8C006174656420636861726163746572697390
:108D9C007469632063616E6E6F7420626520616418
:108DAC006465642E004661696C656420746F206193
:108DBC007070656E64206C6F63616C2063686172A7
:108DCC00616374657269737469632E00000000003E
:108DDC0000000000655C0B00C95C0B00AF5D0B0074
:108DEC00F35C0B00695C0B0000000000000000004D
:108DFC00615C0B00D75C0B00635C0B00F95C0B0037
:108E0C00895C0B0000000000000000005F5C0B00A0
:108E1C00E55C0B0091640B00FF5C0B00A95C0B0084
:108E2C000000000000000000000000000000FB3407
:108E3C009B5F8000008000100000000000007BE3BE
:108E4C0027747BF815ACDD49A913000072F5FB34CF
:108E5C009B5F8000008000100000000000000000FC
:108E6C000000000000000000F76F0B00ED6F0B001E
:108E7C00E36F0B00D96F0B00CD6F0B00C16F0B00B4
:108E8C0001720B0009720B00B56F0B00AD6F0B007C
:108E9C00A36F0B00996F0B0039720B0000000000E0
:108EAC000000000015700B005F700B0037700B009A
:108EBC0017700B003F700B0047700B004F700B00CE
:108ECC0057700B000000000000000000D1700B0078
:108EDC00C1700B00C3700B006170700000000000CB
:108EEC0000000000C1710B00CB710B00D5710B00A1
:108EFC00DF710B00E9710B00F5710B0001720B00B7
:108F0C0009720B0011720B001D720B0025720B0005
:108F1C002F720B0039720B00000810182028303803
:108F2C0025592D256D2D25645425483A254D3A2576
:108F3C0053257A0061736374696D6500000000004D
:108F4C000000000021770B008D770B0065770B007C
:108F5C0025730B0035770B0051770B0043770B0013
:108F6C005F770B0023770B0027770B0000000000C6
:108F7C0000000000CB770B0033780B0009780B0056
:108F8C0025730B00FB770B00CD770B00DD770B0007
:108F9C002D780B00ED770B00C5770B00000000005F
:108FAC000000000023790B0019790B000F790B00DE
:108FBC00C5780B0003790B00F7780B0001720B00DE
:108FCC0009720B00EB780B00E3780B00D9780B00DF
:108FDC00CF780B0039720B0000537431395F53702A
:108FEC005F6D616B655F7368617265645F74616707
:108FFC000000000040900B00E58F0B00A0900B00D0
:10900C0014900B00C4900B004E31305F5F63787886
:10901C00616269763131375F5F636C6173735F7462
:10902C007970655F696E666F450000000000000096
:10903C0008900B00BD7C0B00D17C0B00657E0B00F7
:10904C00657E0B003B7D0B007D7C0B00237D0B00B4
:10905C00E57C0B00AF7C0B00A0900B0070900B001C
:10906C0008900B004E31305F5F63787861626976EF
:10907C003132305F5F73695F636C6173735F7479F6
:10908C0070655F696E666F450000000000000000AF
:10909C0064900B00657D0B00797D0B00657E0B00E9
:1090AC00657E0B003B7D0B007D7C0B00397E0B003D
:1090BC00C57D0B008D7D0B0040900B00CC900B0000
:1090CC00537439747970655F696E666F00524545EB
:1090DC004E54206D616C6C6F6320737563636565B2
:1090EC00646564002F746D702F6A656E6B696E73A6
:1090FC002D4743432D31302D706970656C696E6559
:10910C002D34385F32303230313132345F313630D9
:10911C00363138303633392F7372632F6E65776C76
:10912C0069622F6E65776C69622F6C6962632F734D
:10913C0074646C69622F72616E642E6300000000AF
:10914C007D420B00896F0B0001700B00B1710B009D
:10915C0011730B0095740B00E9760B000D770B0067
:04916C002D790B004E
:10917000040000001400000003000000474E5500EA
:1091800036740F60C31960368FA93FBB775E5E40AF
:04919000E79FAD08A0
:0491940000000000D7
:10919800408F0B0080E50320000000000000000065
:1091A80000000000000000000000000000000000B7
:1091B80000000000000000000000000000000000A7
:1091C8000000000000000000000000000000000097
:1091D8000000000000000000000000000000000087
:1091E8000000000000000000000000000000000077
:0C91F8000000000000000000ECE7032075
:10920400FFFFFFFF00000102030405060708090A27
:109214000B0C0D0E0F101112131415161718191A22
:089224001B1C1D1E1F20280069
:04922C00785634122A
:04000003B000401CED
:00000001FF
